:020000040800F2
:1000000030A20020E51000088D0100088F010008D3
:10001000910100089301000895010008000000000C
:100020000000000000000000000000009701000830
:10003000650200080000000067020008990100083E
:10004000B1010008B1010008B1010008B1010008C8
:10005000B1010008B1010008B1010008B1010008B8
:10006000B1010008B1010008B1010008B1010008A8
:10007000B1010008B1010008B1010008B101000898
:10008000B1010008B1010008B1010008B101000888
:10009000B1010008B1010008B1010008B101000878
:1000A000B1010008B1010008B1010008B101000868
:1000B000B1010008B1010008B1010008B101000858
:1000C0004FF04023D3F800241206FBD5C3F80404F4
:1000D000704708B5411E11F8010F00B908BDFFF7C0
:1000E000EFFFF8E70A4A1368013310B51360094AB5
:1000F00013680446013308481360FFF7EAFF2046FF
:10010000FFF7E7FFBDE810400448FFF7E2BF00BF7C
:100110002802002024020020081200080D1A0008FE
:100120000D4A38B51368013313600C4A136805464D
:1001300001330B4813600C46FFF7CBFF2846FFF74F
:10014000C8FF0848FFF7C5FF2046FFF7C2FFBDE81C
:1001500038400548FFF7BDBF2802002020020020DC
:1001600010120008D21900080D1A0008024A13687C
:1001700001331360704700BF04020020024A136875
:1001800001331360704700BF00020020FEE7FEE766
:10019000FEE7FEE7FEE77047044AD2E9003113F5B7
:1001A0007A7341F10001C2E9003170471802002062
:1001B000FEE700BEFDE730B5011E85B01ADA2D203E
:1001C000FFF77EFF494201AB00241D460A20B1FB28
:1001D000F0F200FB1211303103F8011B013411461B
:1001E000002AF4D1013C285DFFF76AFF002CF9D109
:1001F00005B030BDE7D1302005B0BDE83040FFF795
:100200005FBF000038B504468C420D46104603D14E
:10021000BDE83840FFF766BF0949FFF781FF09488D
:10022000FFF757FF2846FFF7C6FF0748FFF751FFC4
:100230002046FFF7C0FFBDE838400448FFF749BF3C
:100240001812000827120008341200080D1A0008BE
:10025000034608460BB1FFF745BF0149FFF760BFF2
:100260000F1A000870477047034600F5C05100227E
:100270001A72DA60C3E9002218338B42F8D100F514
:100280008053C3F80028C3F80428704700B5ADF5C3
:10029000C05D83B00648FFF71CFF6846FFF7E4FF28
:1002A00004480DF5C05D03B05DF804EBFFF71ABF1D
:1002B0003B1200086712000800B5ADF5C05D83B0C1
:1002C0000B48FFF706FF0B48FFF70CFF0A48FFF744
:1002D00009FF6846FFF7C8FF0848FFF703FF084813
:1002E0000DF5C05D03B05DF804EBFFF7FBBE00BF8A
:1002F00087120008141300082E130008AE1200081D
:10030000C612000870B5ADF5804D9CB02D48FFF7C2
:10031000E0FE2D48FFF7E6FE1CAC2C48FFF7E2FE9E
:100320002346002543F86C5D29464FF4006203A87C
:10033000029300F0DBFE29464FF400620DF60C003C
:1003400000F0D4FE2946202204F69C7000F0CEFE78
:100350002946202204F6BC7000F0C8FE04F6DC73C7
:10036000184629460DF5015641F6080200F0BEFE7A
:100370003036FFF779FF02AC41F60802294606F253
:10038000E47000F0B3FE04F521500C30FFF76CFF71
:10039000D6F8DC57D6F8E0470D49631B5842584160
:1003A000FFF756FF601CC0B2401B18BF012009496F
:1003B000FFF74EFF08480DF5804D1CB0BDE87040BA
:1003C000FFF790BEDB120008061300082013000898
:1003D0003A130008551300086D13000870B572B683
:1003E000002300F11C04142505FB03F2A65C5EB992
:1003F00085189CB20FC905F10C0686E80F00012391
:100400002B7762B6204670BD0133082BECD14FF636
:10041000FF74F6E72DE9F04F014687B072B6D0E9D8
:1004200000B001F5A47501901827002007FB00F427
:100430002E5D002E5FD001300828F7D1002091F802
:10044000313173B191F83021454C182303FB02126E
:10045000D2E94E32019913EB0B0341EB0202C4E9DE
:10046000003262B607B0BDE8F08F4FF0000991F896
:1004700030E1CDF80C90A5B1182404FB0EF401EB8B
:1004800004080494D8F83841D8F83C710294A24288
:1004900073EB0704029C1AD2A41A67EB0307C8E99E
:1004A0004E47182404FB0010C0E94E23059B06F8B4
:1004B00003E08AF80150B9F1000F16D0039B6343A3
:1004C0001133F21806F803C00123537045E0141BE2
:1004D00063EB0703049FCDF80CE011372246F419B3
:1004E000A94616F807E06578C5E7012381F830C111
:1004F00081F8313131E00C44012584F84851109DD8
:10050000C4F84051119DC4F84451019C1BEB0205F5
:1005100044EB0304AB45019D75EB040401D3324663
:1005200033461824444304F1110501F59C760595E2
:1005300006EB050A91F831515FFA80FC002D94D149
:10054000012081F8310181F830C10819C0E94E233A
:100550009AF801300BB18AF8015001206FE700BF13
:1005600010020020D1F880300A6CBFF35B8F9A42F2
:1005700002D100230371704751F82320013303F0A7
:100580000303BFF35B8FC1F8803001230260F1E702
:1005900010B5026CD0F88040BFF35B8F531C03F0A2
:1005A0000303A34207D0096840F82210BFF35B8F12
:1005B0000364012010BD0020FCE72DE9F743058905
:1005C0000022013505F00705944696461346164667
:1005D00003274FF01408AC1804F0070408FB0409C3
:1005E00099F81C10013901290FD899F81510013913
:1005F000C9B2FD2909D999F814100129A4B213D858
:1006000083B1B94201D226460F460132082AE2D10F
:10061000BCF1000F1CD05BB3012F29D8ADF80460EA
:10062000012317E00123EEE7022906D1BCF1000FF8
:10063000EBD1A6464FF0010CE7E7002BE5D1BCF16A
:10064000000FE2D10329E0D126460F460123DCE763
:10065000002BE3D18DF80630BDF80430002063F3A1
:100660000F00BDF8063063F31F4003B0BDE8F08310
:10067000A0F808E07646D1E789B2072907D8142305
:1006800003FB0100007F003818BF012070470020E5
:1006900070470000F7B505468EB272B63146FFF7D7
:1006A000EBFF074620B9002762B6384603B0F0BD1D
:1006B000D5F8F801019010F47F0F83B201D09E426B
:1006C000F1D0094B0FCB142404FB06544FF0000C5F
:1006D00084F81CC00C3484E80F0005EB8605C5F8CF
:1006E000ECC0C5F80CC1DFE78811000813B504465B
:1006F000FFF763FF10F47F0F019010D094F8FA31E8
:100700002BB1B4F8F821BDF804309A4205D04FF06F
:10071000E0234FF08052C3F8042D02B010BD034B0C
:100720001B78002BF9D030BFF7E700BF080200208C
:100730002DE9F0470446D0E90010891843EB00008A
:10074000C4E9001094F830E194F831714FF0180CBE
:100750004FF000084FF00009002F43D052EA030188
:1007600040D00CFB0EF6A019D0E94E158A4273EB6F
:10077000050A07D2891A65EB03050022C0E94E1568
:100780001346E9E7511A06F249160A4604EB060138
:10079000C0E94E8914F806E04F7863EB0503DBE708
:1007A00094F830317343E218D2E94E10014314D16A
:1007B000D2E9501003F59C73B2F84921A4F8302116
:1007C000E218E55055609560D5601574957401B1D7
:1007D000884794F83131002BE2D12046FFF786FF9D
:1007E000BDE8F08718260025F3E789B2072930B560
:1007F00019D800EB810450F82130BFF35B8F03EA76
:10080000020080B1BFF35B8F23EA020554E8001FAA
:10081000994203D144E8005CBCF1000FBFF35B8F49
:1008200002D00B46EBE7002030BD000030B5074C8E
:100830008A080023934202D1A1EB830030BD50F817
:100840002350A542F8D10133F4E700BFEFBEADDE7F
:100850002DE9F043C44AC548D2F84038C44E43F4A9
:100860000033ADF54B7DC2F840384FF0402340F2E5
:100870008362C3F8082442F20802C3F80C244FF044
:10088000E023BC4A5A6100229A6107221A61BA4BDE
:1008900001221A70FFF71DFCB848FFF71AFCB84890
:1008A000FFF717FCB548FFF714FCB648FFF711FC3B
:1008B000B54B0FCB0CAC84E80F0021463046FFF758
:1008C0008DFD07461FFA80F84FF6FF70B8EB000069
:1008D00018BF0120AD49FFF7BBFC0DF22F253946AB
:1008E000304625F0FF05FFF7C7FE18B1142303FBC0
:1008F00008639869A649003818BF0120FFF7A8FCD3
:100900009B483946FFF7B8FE002800F0AB8314235C
:1009100003FB086898F814009E49A0F10208D8F17A
:10092000000040EB0800FFF793FC39469048FFF7C2
:10093000B1FE9949FFF78CFC39468D48FFF7AAFEB6
:1009400080F001009549C0B2FFF782FC9448FFF7A0
:10095000C0FB944B0FCB84E80F0085482146FFF77E
:100960003DFD87B2072F80460DD8BFF35B8F07F19F
:100970003B0306EB830353E8001F41F0010143E80A
:100980000012002AF7D17A484146FFF775FE00B3FE
:10099000142303FB07631A7F032A1AD172B61A7F46
:1009A000032A15D1072F13D807F13B0256F822105E
:1009B000BFF35B8F06EB8706D6F80C21114207D0F8
:1009C00001221A776A480023C6F80C31FFF78EFE21
:1009D00062B6012241467448744FFFF706FF00F1EA
:1009E000FF3EDEF1000040EB0E007149FFF730FCE6
:1009F000012241466C48FFF7F8FEB0FA80F06D49DD
:100A00004009FFF725FC41465948FFF743FE6A4875
:100A1000FFF75FFB0026694B2360666094E80300E4
:100A20004FF47A728DE8030000235148FFF7F2FC7F
:100A30006349FFF70DFC00234D484FF4FA72FFF7AE
:100A400077FE314638685F4AFFF7DCFB00234848F1
:100A50004FF41672FFF76CFE5B4A38680121FFF70E
:100A6000D1FB5A48FFF735FBC0223146284600F03B
:100A70003DFB29462046FFF775FD2079544980F05B
:100A80000100FFF7E5FB2B6CD5F88000013303F084
:100A90000303181A18BF01204E494F4EFFF7D8FB29
:100AA0000123236021462846FFF772FD4B49FFF7DB
:100AB000CFFB0223236021462846FFF769FD484902
:100AC000FFF7C6FB0323236021462846FFF760FD9E
:100AD0004449FFF7BDFB0423236021462846FFF766
:100AE00057FD80F001004049C0B2FFF7B1FB294635
:100AF0002046FFF737FD236820793C49012B14BFBE
:100B0000002000F00100FFF7A3FB29462046FFF775
:100B100029FD236820793649022B14BF002000F0FC
:100B20000100FFF795FB29462046FFF71BFD2368D0
:100B300020793049032B14BF002000F00100FFF79B
:100B400087FB29462046FFF70DFD20792A4980F0D2
:100B50000100FFF77DFB2948FFF7BBFA2848FFF7A4
:100B6000C1FA2A2108464DE0003002400D1A000863
:100B7000000000203F190100080200207E19000833
:100B800092130008B813000898110008D713000842
:100B9000F41300080B140008211400083614000890
:100BA00050140008A8110008EC00002004020020E6
:100BB0006E14000885140008A51400086D010008D3
:100BC000BC140008CC140008E2140008FA14000851
:100BD0001515000828150008B8110008421500086E
:100BE0004915000850150008571500086C15000835
:100BF00072150008781500087E1500088E1500088B
:100C0000AF150008C64AFFF7FDFAC648FFF76AFAB3
:100C1000C548FFF767FAC548FFF75BFA96E80F008B
:100C20000DF1100C8CE80F0006F110030FCB08AF8C
:100C3000203687E80F0096E80F0084E80F00614631
:100C4000BB48FFF7CBFB39468146B948FFF7C6FBE7
:100C500021468046B648FFF7C1FB0646B448FFF779
:100C6000ACFC034613F47F0F0390C0F3074008D099
:100C7000BDF80C00B3B2A0EB030CDCF1000040EBBC
:100C80000C00AC49FFF7E4FA4946A948FFF702FD1A
:100C90004146A748FFF7FEFC3146A548FFF7FAFC9E
:100CA000A548FFF716FAA549224600230133402B39
:100CB00042F8041BFAD14FF480712046FFF7B6FDCD
:100CC0006423584310F47F4FC0F3072640F0CC81D3
:100CD0009B48FFF707FA9B4B9B4EC4E93C33C4E9A2
:100CE0003E334FF480712046FFF7A0FD6423584344
:100CF00010F47F4018BF01209449FFF7A9FA9448E7
:100D0000FFF7E7F996E80F00103687E80F0096E83E
:100D10000F0084E80F0039468548FFF75FFB214646
:100D200080468348FFF75AFB0026814B0746304632
:100D30001A7F02B101300136082E03F11403F7D1F6
:100D40000128D4BF002001208249FFF781FA4146E3
:100D50007748FFF79FFC39467548FFF79BFC7E48B4
:100D6000FFF7B7F9F822002105F1080000F0BEF9FD
:100D70004FF0006379491A684FF041082B46B8F1EB
:100D8000010840F085814FF0E029754F2A606F60BF
:100D9000C9F8085DBFF34F8FBFF36F8F7148FFF73E
:100DA000A1F97148FFF79EF9E86B7049003818BF48
:100DB0000120FFF74DFAAF63BFF34F8FA86B6C496B
:100DC000C21B50425041FFF743FAC5F8D870BFF339
:100DD0004F8FD5F8D8006749C51B68426841FFF7B7
:100DE00037FA4FF00063C9F8083D6348FFF771F91F
:100DF0006248FFF777F96248FFF774F96148FFF737
:100E000071F96148FFF76EF96048FFF762F96048D1
:100E1000FFF768F95F48FFF765F95F48FFF762F988
:100E20005E48FFF756F95E48FFF75CF95D48FFF74B
:100E300059F95D48FFF756F95C490120FFF708FAB8
:100E400045462346013EC3E900551D72DD6003F1AE
:100E50001803F7D156490120FFF7FAF95549012047
:100E6000FFF7F6F954490120FFF7F2F95349012041
:100E7000FFF7EEF952490120FFF7EAF95149012045
:100E8000FFF7E6F9FFF718FAFFF700FA4E48FFF709
:100E900020F9CDE90D6602230F962A226373012300
:100EA000A37322600DF13E074FF00001BFF35B8F8B
:100EB000D7E84F2FC7E8401F0028F9D1BFF35B8F59
:100EC0000DF13F062273BFF35B8F33703F48FFF78E
:100ED00009F93078BFF35B8FC0B200383C4918BFC6
:100EE0000120FFF7B5F93378BFF35B8FDBB273B145
:100EF000627BBFF35B8FD7E84F3FC7E8412F0029E4
:100F0000F9D1BFF35B8F6373BFF35B8F3570637B86
:100F1000304954F82300A0F12A0358425CE000BF96
:100F2000BC150008CD150008DE150008EF150008F7
:100F3000000000201416000831160008EFBEADDED8
:100F40005016000878563412E81100086816000898
:100F50007D1600089C160008B9160008B3010008A9
:100F60007D010008D7160008EB16000802170008DC
:100F70001317000829170008391700085917000827
:100F8000681700087C1700088F1700089D170008D5
:100F9000BC170008D6170008F2170008161800083A
:100FA000361800084918000854180008641800088A
:100FB000151500087718000885180008A018000803
:100FC000B1180008C5180008DB180008021900084D
:100FD000201900083A1900085841FFF739F930780C
:100FE000BFF35B8FC0B2B0FA80F02C494009FFF725
:100FF0002FF9FFF787F92A48FFF76BF82948FFF721
:1010000068F82948FFF765F82848FFF762F8284B89
:101010001868FFF7D0F82748FFF75BF82648FFF776
:1010200058F8264B1868FFF7C6F82248FFF751F822
:101030002348FFF74EF8234B1C682046FFF7BBF808
:101040001C48FFF746F834BB1F48FFF742F81F481B
:10105000FFF73FF8003C4FF0604318BF01241C60CD
:1010600030BFFDE7032057E419491A48FFF758F845
:101070001948FFF72EF80020FFF79DF81748FFF7F3
:1010800028F83046FFF797F80A48FFF722F822E6DB
:1010900043F8041B73E61248D7E700BF5419000851
:1010A0007C190008A91900087E190008BA1900085F
:1010B000280200200D1A0008C3190008240200208D
:1010C000CC19000820020020D5190008101A0008C9
:1010D00018120008501600082712000834120008E1
:1010E000F219000808B5FFF7B3FB0000830730B51D
:1010F00046D08418844604E003F8011B9D0704D001
:101100009C46A4456346F7D130BD013A0244A2EBA8
:101110000C02032A29D9CCB204EB04240F2A04EBD5
:1011200004442FD9A2F1100C2CF00F0C03F1100580
:10113000AC44C3E90044C3E9024410336345F8D129
:1011400012F00C0F02F00F0E18D02EF0030C9C447E
:10115000AEF104051A4642F8044B6245FBD125F076
:10116000030404330EF003022344002ACCD0C9B296
:101170001A4403F8011B9342FBD130BD7246F4E7D9
:101180000346C6E79646E0E70000000000000000C6
:1011900003FF00004C1A00080000000000000000DF
:1011A00002FF0000561A00080000000000000000C6
:1011B00002FF0000411A00080000000000000000CB
:1011C00003FF00003C1A00080000000000000000BF
:1011D00002FF0000371A00080000000000000000B5
:1011E00000FF00002E1A00080000000000000000B0
:1011F00002FF0000271A00080000000000000000A5
:1012000002FF0000201A00085B504153535D20008C
:101210005B4641494C5D200076616C7565206D69C7
:10122000736D617463680020206578706563746510
:10123000643A200020676F743A20000A2D2D2D207B
:101240004E6577204150493A2050726F6365737341
:101250006F7220436F6E636570742054657374738E
:10126000202D2D2D0D0A0050726F636573736F7200
:101270004C696B65206475636B20747970696E6767
:1012800020776F726B73000A2D2D2D204E6577200D
:101290004150493A20417564696F436F6E746578B7
:1012A00074205465737473202D2D2D0D0A00636F07
:1012B0006E74657874206861732062756666657205
:1012C0005F73697A6500636F6E7465787420686116
:1012D00073203220696E70757473000A2D2D2D20D5
:1012E0004E6577204150493A20456D6265646465DA
:1012F0006420416461707465722054657374732056
:101300002D2D2D0D0A0041646170746572436F6E5E
:101310006669672073616D706C655F7261746500EA
:1013200041646170746572436F6E666967206275AF
:10133000666665725F73697A650061646170746581
:1013400072206576656E74732071756575652065AC
:101350006D70747900707573686564206576656E6C
:101360007420746F206164617074657200456D62F1
:101370006564646564204164617074657220696E9F
:101380007374616E74696174696F6E20776F726BCC
:1013900073002020554D492D4F5320436F6D7072BF
:1013A0006568656E736976652052656E6F64652049
:1013B00054657374730D0A000A2D2D2D205461732A
:1013C0006B204372656174696F6E2054657374732A
:1013D000202D2D2D0D0A006372656174655F7461A7
:1013E000736B2072657475726E732076616C6964BC
:1013F000206964006765745F7461736B5F6E616D13
:1014000065206E6F74206E756C6C007461736B2058
:101410007072696F7269747920636F727265637438
:101420000064656C6574655F7461736B20737563CC
:1014300063656564730064656C65746520696E76C8
:10144000616C6964207461736B206661696C730000
:101450000A2D2D2D204E6F74696669636174696F62
:101460006E205465737473202D2D2D0D0A006E6F40
:1014700074696669636174696F6E2064656C69760E
:1014800065726564006E6F74696669636174696F23
:101490006E20636C6561726564206166746572209C
:1014A00077616974000A2D2D2D2054696D657220B5
:1014B0005465737473202D2D2D0D0A0074696D65AC
:1014C00072207363686564756C65640074696D652A
:1014D00072206E6F74206669726564206561726C3B
:1014E000790074696D657220666972656420617443
:1014F00020646561646C696E65000A2D2D2D205392
:101500007073635175657565205465737473202D10
:101510002D2D0D0A007175657565207374617274E7
:101520007320656D707479007175657565206861EB
:101530007320737061636520696E697469616C6C96
:1015400079007075736820310070757368203200FF
:101550007075736820330070757368206661696CFC
:1015600073207768656E2066756C6C00706F7020F4
:101570003100706F70203200706F70203300706F18
:101580007020656D707479206661696C73000A2D36
:101590002D2D20526573756C742F457870656374BA
:1015A0006564205465737473202D2D2D0D0A004F32
:1015B0006B206861732076616C7565004F6B2076D7
:1015C000616C756520636F72726563740045727239
:1015D00020686173206E6F2076616C7565004572BE
:1015E0007220636F646520636F7272656374000AB2
:1015F0002D2D2D205072696F7269747920536368A4
:101600006564756C696E67205465737473202D2D45
:101610002D0D0A007265616C74696D6520746173CB
:101620006B2073656C65637465642066697273749E
:10163000000A2D2D2D20537461636B204D6F6E6950
:10164000746F72205465737473202D2D2D0D0A0054
:10165000737461636B20696E697469616C6C792065
:101660003025207573656400737461636B20757336
:10167000616765206465746563746564000A2D2D77
:101680002D20666F725F656163685F7461736B20A4
:101690005465737473202D2D2D0D0A00666F725FD3
:1016A000656163685F7461736B20697465726174EE
:1016B0006573207461736B73000A2D2D2D205665A0
:1016C00063746F72205461626C6520546573747327
:1016D000202D2D2D0D0A007461626C6520626173EE
:1016E00065206E6F6E2D7A65726F007461626C6535
:1016F0002070726F7065726C7920616C69676E65BD
:10170000640068616E646C6572206E6F74206E7523
:101710006C6C0068616E646C657220736574206324
:101720006F72726563746C79004952512068616E02
:10173000646C657220736574000A2D2D2D204E6532
:1017400077204150493A205479706573205465736D
:101750007473202D2D2D0D0A0073616D706C655F03
:101760007420776F726B730064656661756C7420AA
:1017700073616D706C65207261746500646566618B
:10178000756C7420626C6F636B2073697A65006995
:101790006420747970657320776F726B000A2D2D49
:1017A0002D204E6577204150493A2054696D6520BF
:1017B0005465737473202D2D2D0D0A006D735F74A5
:1017C0006F5F73616D706C657328312E302C20341F
:1017D00038303030290073616D706C65735F746FE1
:1017E0005F6D732834383030302C2034383030304E
:1017F000290062706D5F746F5F73616D706C6573EB
:101800005F7065725F62656174283132302C2034FC
:101810003830303029000A2D2D2D204E657720419B
:1018200050493A204576656E742054657374732070
:101830002D2D2D0D0A006576656E74207479706506
:10184000206973204D696469006E6F746520697347
:101850002036300076656C6F636974792069732077
:101860003130300069735F6E6F74655F6F6E282969
:1018700020776F726B730070757368207375636384
:1018800065656473007175657565206E6F7420659C
:101890006D7074792061667465722070757368006C
:1018A000706F702072657475726E732074727565D6
:1018B00000706F70706564206E6F746520636F7266
:1018C0007265637400717565756520656D707479F6
:1018D00020616674657220706F70000A2D2D2D20B6
:1018E0004E6577204150493A20547269706C6542C8
:1018F0007566666572205465737473202D2D2D0DE9
:101900000A0077726974655F627566666572206148
:101910006E64207075626C69736820776F726B00FB
:101920006861735F6E65775F64617461207265746E
:1019300075726E732074727565007265616465728C
:101940002073656573207772697474656E207661A3
:101950006C7565006861735F6E65775F6461746163
:101960002072657475726E732066616C7365206198
:101970006674657220757064617465000D0A3D3D82
:101980003D3D3D3D3D3D3D3D3D3D3D3D3D3D3D3D87
:101990003D3D3D3D3D3D3D3D3D3D3D3D3D3D3D3D77
:1019A0003D3D3D3D3D3D0D0A0020205465737420B2
:1019B00053756D6D6172790D0A00546F74616C3AE4
:1019C0002020005061737365643A20004661696CA1
:1019D00065643A20000D0A2A2A2A20414C4C2054E2
:1019E0004553545320504153534544202A2A2A0D2D
:1019F0000A000D0A2A2A2A20534F4D4520544553E8
:101A00005453204641494C4544202A2A2A0D0A00B5
:101A1000544553545F434F4D504C4554450D0A00B7
:101A20007461736B5F62007461736B5F61007265F8
:101A3000616C74696D6500757365720069646C65CD
:101A4000006E6F7469665F74657374003C756E6ECA
:101A5000616D65643E00746573745F7461736B00DF
:101A60000000000000000000000000000000000076
:101A70000000000003FF00004C1A000800000000F6
:101A8000000000000000000003FF00004C1A0008E6
:101A900000000000000000000000000003FF000044
:101AA0004C1A0008000000000000000000000000C8
:101AB00003FF00004C1A00080000000000000000B6
:101AC0000000000003FF00004C1A000800000000A6
:101AD000000000000000000003FF00004C1A000896
:101AE00000000000000000000000000003FF0000F4
:101AF0004C1A000800000000000000000000000078
:101B000003FF00004C1A0008000000000000000065
:101B100000000000000000000000000000000000C5
:101B200000000000000000000000000000000000B5
:101B300000000000000000000000000000000000A5
:101B40000000000000000000000000000000000095
:101B50000000000000000000000000000000000085
:101B60000000000000000000000000000000000075
:101B70000000000000000000000000000000000065
:101B80000000000000000000000000000000000055
:101B90000000000000000000000000000000000045
:101BA0000000000000000000000000000000000035
:101BB0000000000000000000000000000000000025
:101BC0000000000000000000000000000000000015
:101BD0000000000000000000000000000000000005
:101BE00000000000000000000000000000000000F5
:101BF00000000000000000000000000000000000E5
:101C000000000000000000000000000000000000D4
:101C100000000000000000000000000000000000C4
:101C200000000000000000000000000000000000B4
:101C300000000000000000000000000000000000A4
:101C40000000000000000000000000000000000094
:101C50000000000000000000000000000000000084
:04000005080000C02F
:00000001FF
