:020000040800F2
:1000000030A20020091000088D0100088F010008AF
:10001000910100089301000895010008000000000C
:100020000000000000000000000000009701000830
:10003000650200080000000067020008990100083E
:10004000B1010008B1010008B1010008B1010008C8
:10005000B1010008B1010008B1010008B1010008B8
:10006000B1010008B1010008B1010008B1010008A8
:10007000B1010008B1010008B1010008B101000898
:10008000B1010008B1010008B1010008B101000888
:10009000B1010008B1010008B1010008B101000878
:1000A000B1010008B1010008B1010008B101000868
:1000B000B1010008B1010008B1010008B101000858
:1000C0004FF04023D3F800241206FBD5C3F80404F4
:1000D000704708B5411E11F8010F00B908BDFFF7C0
:1000E000EFFFF8E70A4A1368013310B51360094AB5
:1000F00013680446013308481360FFF7EAFF2046FF
:10010000FFF7E7FFBDE810400448FFF7E2BF00BF7C
:1001100028020020240200202C1100088618000864
:100120000D4A38B51368013313600C4A136805464D
:1001300001330B4813600C46FFF7CBFF2846FFF74F
:10014000C8FF0848FFF7C5FF2046FFF7C2FFBDE81C
:1001500038400548FFF7BDBF2802002020020020DC
:10016000341100084B18000886180008024A13686A
:1001700001331360704700BF04020020024A136875
:1001800001331360704700BF00020020FEE7FEE766
:10019000FEE7FEE7FEE77047044AD2E9003113F5B7
:1001A0007A7341F10001C2E9003170471802002062
:1001B000FEE700BEFDE730B5011E85B01ADA2D203E
:1001C000FFF77EFF494201AB00241D460A20B1FB28
:1001D000F0F200FB1211303103F8011B013411461B
:1001E000002AF4D1013C285DFFF76AFF002CF9D109
:1001F00005B030BDE7D1302005B0BDE83040FFF795
:100200005FBF000038B504468C420D46104603D14E
:10021000BDE83840FFF766BF0949FFF781FF09488D
:10022000FFF757FF2846FFF7C6FF0748FFF751FFC4
:100230002046FFF7C0FFBDE838400448FFF749BF3C
:100240003C1100084B1100085811000886180008DE
:10025000034608460BB1FFF745BF0149FFF760BFF2
:10026000881800087047704700B5ADF5C05D83B0D1
:100270000B48FFF72EFF6B464FF4807100220139C7
:10028000C3E900221A72DA6003F11803F7D10548B6
:100290000DF5C05D03B05DF804EBFFF723BF00BFB1
:1002A0005F1100088B11000800B5ADF5C05D83B08B
:1002B0000F48FFF70EFF0F48FFF714FF0E48FFF738
:1002C00011FF6B464FF4807100220139C3E900220F
:1002D0001A72DA6003F11803F7D10848FFF702FF3A
:1002E00007480DF5C05D03B05DF804EBFFF7FABEFB
:1002F000AB110008D2110008EA110008DE11000855
:10030000F611000870B572B6002300F11C04142524
:1003100005FB03F2A65C5EB985189CB20FC905F116
:100320000C0686E80F0001232B7762B6204670BDCD
:100330000133082BECD14FF6FF74F6E72DE9F04FAF
:10034000014687B072B6D0E900B001F5A4750190FE
:100350001827002007FB00F42E5D002E5FD001302F
:100360000828F7D1002091F8313173B191F830218C
:10037000454C182303FB0212D2E94E32019913EBCC
:100380000B0341EB0202C4E9003262B607B0BDE8DC
:10039000F08F4FF0000991F830E1CDF80C90A5B145
:1003A000182404FB0EF401EB04080494D8F8384137
:1003B000D8F83C710294A24273EB0704029C1AD253
:1003C000A41A67EB0307C8E94E47182404FB001082
:1003D000C0E94E23059B06F803E08AF80150B9F105
:1003E000000F16D0039B63431133F21806F803C0C5
:1003F0000123537045E0141B63EB0703049FCDF802
:100400000CE011372246F419A94616F807E0657882
:10041000C5E7012381F830C181F8313131E00C4466
:10042000012584F84851109DC4F84051119DC4F82D
:100430004451019C1BEB020544EB0304AB45019DB9
:1004400075EB040401D3324633461824444304F1C7
:10045000110501F59C76059506EB050A91F83151D9
:100460005FFA80FC002D94D1012081F8310181F8E0
:1004700030C10819C0E94E239AF801300BB18AF84F
:10048000015001206FE700BF10020020D1F880303A
:100490000A6CBFF35B8F9A4202D10023037170474D
:1004A00051F82320013303F00303BFF35B8FC1F83E
:1004B000803001230260F1E710B5026CD0F8804073
:1004C000BFF35B8F531C03F00303A34207D00968FB
:1004D00040F82210BFF35B8F0364012010BD0020A1
:1004E000FCE72DE9F74305890022013505F00705F2
:1004F000944696461346164603274FF01408AC1848
:1005000004F0070408FB040999F81C1001390129BB
:100510000FD899F815100139C9B2FD2909D999F8F0
:1005200014100129A4B213D883B1B94201D22646CE
:100530000F460132082AE2D1BCF1000F1CD05BB398
:10054000012F29D8ADF80460012317E00123EEE75D
:10055000022906D1BCF1000FEBD1A6464FF0010CE9
:10056000E7E7002BE5D1BCF1000FE2D10329E0D190
:1005700026460F460123DCE7002BE3D18DF8063039
:10058000BDF80430002063F30F00BDF8063063F3BC
:100590001F4003B0BDE8F083A0F808E07646D1E73D
:1005A00089B2072907D8142303FB0100007F003814
:1005B00018BF01207047002070470000F7B50546BE
:1005C0008EB272B63146FFF7EBFF074620B900271F
:1005D00062B6384603B0F0BDD5F8F801019010F4CA
:1005E0007F0F83B201D09E42F1D0094B0FCB142470
:1005F00004FB06544FF0000C84F81CC00C3484E853
:100600000F0005EB8605C5F8ECC0C5F80CC1DFE7A7
:10061000AC10000813B50446FFF763FF10F47F0F1A
:10062000019010D094F8FA312BB1B4F8F821BDF84C
:1006300004309A4205D04FF0E0234FF08052C3F8C7
:10064000042D02B010BD034B1B78002BF9D030BF36
:10065000F7E700BF080200202DE9F0470446D0E983
:100660000010891843EB0000C4E9001094F830E151
:1006700094F831714FF0180C4FF000084FF000095A
:10068000002F43D052EA030140D00CFB0EF6A01914
:10069000D0E94E158A4273EB050A07D2891A65EB39
:1006A00003050022C0E94E151346E9E7511A06F288
:1006B00049160A4604EB0601C0E94E8914F806E023
:1006C0004F7863EB0503DBE794F830317343E218AE
:1006D000D2E94E10014314D1D2E9501003F59C73B6
:1006E000B2F84921A4F83021E218E5505560956030
:1006F000D5601574957401B1884794F83131002B99
:10070000E2D12046FFF786FFBDE8F08718260025D6
:10071000F3E789B2072930B519D800EB810450F806
:100720002130BFF35B8F03EA020080B1BFF35B8F20
:1007300023EA020554E8001F994203D144E8005C13
:10074000BCF1000FBFF35B8F02D00B46EBE700203C
:1007500030BD000030B5074C8A080023934202D117
:10076000A1EB830030BD50F82350A542F8D10133EE
:10077000F4E700BFEFBEADDE2DE9F043C44AC54843
:10078000D2F84038C44E43F40033ADF54B7DC2F887
:1007900040384FF0402340F28362C3F8082442F20D
:1007A0000802C3F80C244FF0E023BC4A5A6100222F
:1007B0009A6107221A61BA4B01221A70FFF789FC6D
:1007C000B848FFF786FCB848FFF783FCB548FFF749
:1007D00080FCB648FFF77DFCB54B0FCB0CAC84E832
:1007E0000F0021463046FFF78DFD07461FFA80F8BF
:1007F0004FF6FF70B8EB000018BF0120AD49FFF7BE
:1008000027FD0DF22F253946304625F0FF05FFF76D
:10081000C7FE18B1142303FB08639869A649003882
:1008200018BF0120FFF714FD9B483946FFF7B8FEBB
:10083000002800F0A983142303FB086898F814002B
:100840009E49A0F10208D8F1000040EB0800FFF734
:10085000FFFC39469048FFF7B1FE9949FFF7F8FCD5
:1008600039468D48FFF7AAFE80F001009549C0B2D5
:10087000FFF7EEFC9448FFF72CFC944B0FCB84E879
:100880000F0085482146FFF73DFD87B2072F8046C0
:100890000DD8BFF35B8F07F13B0306EB830353E8EF
:1008A000001F41F0010143E80012002AF7D17A4805
:1008B0004146FFF775FE00B3142303FB07631A7F5D
:1008C000032A1AD172B61A7F032A15D1072F13D81B
:1008D00007F13B0256F82210BFF35B8F06EB870649
:1008E000D6F80C21114207D001221A776A4800235A
:1008F000C6F80C31FFF78EFE62B6012241467448FD
:10090000744FFFF706FF00F1FF3EDEF1000040EB01
:100910000E007149FFF79CFC012241466C48FFF72D
:10092000F8FEB0FA80F06D494009FFF791FC4146AE
:100930005948FFF743FE6A48FFF7CBFB0026694B97
:100940002360666094E803004FF47A728DE8030038
:1009500000235148FFF7F2FC6349FFF779FC0023BD
:100960004D484FF4FA72FFF777FE314638685F4A18
:10097000FFF748FC002348484FF41672FFF76CFE5F
:100980005B4A38680121FFF73DFC5A48FFF7A1FB9D
:10099000C0223146284600F03BFB29462046FFF79F
:1009A00075FD2079544980F00100FFF751FC2B6C54
:1009B000D5F88000013303F00303181A18BF012093
:1009C0004E494F4EFFF744FC012323602146284641
:1009D000FFF772FD4B49FFF73BFC022323602146E2
:1009E0002846FFF769FD4849FFF732FC03232360DF
:1009F00021462846FFF760FD4449FFF729FC042300
:100A0000236021462846FFF757FD80F0010040494A
:100A1000C0B2FFF71DFC29462046FFF737FD2368CB
:100A200020793C49012B14BF002000F00100FFF7A2
:100A30000FFC29462046FFF729FD23682079364917
:100A4000022B14BF002000F00100FFF701FC294633
:100A50002046FFF71BFD236820793049032B14BF84
:100A6000002000F00100FFF7F3FB29462046FFF7C6
:100A70000DFD20792A4980F00100FFF7E9FB2948A4
:100A8000FFF727FB2848FFF72DFB2A2108464DE0FA
:100A90000030024086180008000000203F190100C5
:100AA00008020020F71700080B1200083112000896
:100AB000BC100008501200086D12000884120008D3
:100AC0009A120008AF120008C9120008CC100008E2
:100AD000EC00002004020020E7120008FE120008CB
:100AE0001E1300086D0100083513000845130008A7
:100AF0005B130008731300088E130008A11300088D
:100B0000DC100008BB130008C2130008C91300085A
:100B1000D0130008E5130008EB130008F1130008D8
:100B2000F71300080714000828140008C64AFFF746
:100B300069FBC648FFF7D6FAC548FFF7D3FAC548A0
:100B4000FFF7C7FA96E80F000DF1100C8CE80F00C4
:100B500006F110030FCB08AF203687E80F0096E8A8
:100B60000F0084E80F006146BB48FFF7CBFB394616
:100B70008146B948FFF7C6FB21468046B648FFF7D5
:100B8000C1FB0646B448FFF7ACFC034613F47F0FE5
:100B90000390C0F3074008D0BDF80C00B3B2A0EB3F
:100BA000030CDCF1000040EB0C00AC49FFF750FBFC
:100BB0004946A948FFF702FD4146A748FFF7FEFC5A
:100BC0003146A548FFF7FAFCA548FFF782FAA54988
:100BD000224600230133402B42F8041BFAD14FF484
:100BE00080712046FFF7B6FD6423584310F47F4F11
:100BF000C0F3072640F0CA819B48FFF773FA9B4B6E
:100C00009B4EC4E93C33C4E93E334FF48071204627
:100C1000FFF7A0FD6423584310F47F4018BF012064
:100C20009449FFF715FB9448FFF753FA96E80F0035
:100C3000103687E80F0096E80F0084E80F00394669
:100C40008548FFF75FFB214680468348FFF75AFB44
:100C50000026814B074630461A7F02B1013001362B
:100C6000082E03F11403F7D10128D4BF002001207E
:100C70008249FFF7EDFA41467748FFF79FFC394676
:100C80007548FFF79BFC7E48FFF723FAF822002106
:100C900005F1080000F0BCF94FF0006379491A68CB
:100CA0004FF041082B46B8F1010840F083814FF026
:100CB000E029754F2A606F60C9F8085DBFF34F8F58
:100CC000BFF36F8F7148FFF70DFA7148FFF70AFA0B
:100CD000E86B7049003818BF0120FFF7B9FAAF631D
:100CE000BFF34F8FA86B6C49C21B50425041FFF7B6
:100CF000AFFAC5F8D870BFF34F8FD5F8D800674961
:100D0000C51B68426841FFF7A3FA4FF00063C9F8BA
:100D1000083D6348FFF7DDF96248FFF7E3F96248F1
:100D2000FFF7E0F96148FFF7DDF96148FFF7DAF90D
:100D30006048FFF7CEF96048FFF7D4F95F48FFF746
:100D4000D1F95F48FFF7CEF95E48FFF7C2F95E4878
:100D5000FFF7C8F95D48FFF7C5F95D48FFF7C2F92D
:100D60005C490120FFF774FA45462346013EC3E97A
:100D700000551D72DD6003F11803F7D156490120BB
:100D8000FFF766FA55490120FFF762FA544901203E
:100D9000FFF75EFA53490120FFF75AFA5249012042
:100DA000FFF756FA51490120FFF752FAFFF77CFA94
:100DB000FFF75AFA4E48FFF78CF9CDE90D6602238A
:100DC0000F962A2263730123A37322600DF13E075D
:100DD0004FF00001BFF35B8FD7E84F2FC7E8401FEC
:100DE0000028F9D1BFF35B8F0DF13F062273BFF3EB
:100DF0005B8F33703F48FFF775F93078BFF35B8F37
:100E0000C0B200383C4918BF0120FFF721FA3378FF
:100E1000BFF35B8FDBB273B1627BBFF35B8FD7E84D
:100E20004F3FC7E8412F0029F9D1BFF35B8F6373B0
:100E3000BFF35B8F3570637B304954F82300A0F11A
:100E40002A0358425CE000BF35140008461400082D
:100E50005714000868140008000000208D140008D2
:100E6000AA140008EFBEADDEC9140008785634128B
:100E70000C110008E1140008F6140008151500080C
:100E800032150008B30100087D0100085015000864
:100E9000641500087B1500088C150008A2150008D1
:100EA000B2150008D2150008E1150008F515000874
:100EB0000816000816160008351600084F16000818
:100EC0006B1600088F160008AF160008C21600083F
:100ED000CD160008DD1600088E130008F016000875
:100EE000FE160008191700082A1700083E17000808
:100EF000541700087B17000899170008B31700085B
:100F00005841FFF7A5F93078BFF35B8FC0B2B0FA54
:100F100080F02B494009FFF79BF92A48FFF7D9F8E1
:100F20002948FFF7D6F82948FFF7D3F82848FFF7F4
:100F3000D0F8284B1868FFF73EF92748FFF7C9F8A3
:100F40002648FFF7C6F8264B1868FFF734F9224801
:100F5000FFF7BFF82348FFF7BCF8234B1C68204677
:100F6000FFF729F91C48FFF7B4F834BB1F48FFF717
:100F7000B0F81F48FFF7ADF8003C4FF0604318BFD2
:100F800001241C6030BFFDE7032059E419491A48C9
:100F9000FFF7C6F81948FFF79CF80020FFF70BF998
:100FA0001748FFF796F83046FFF705F90A48FFF7AC
:100FB00090F824E643F8041B75E61248D7E700BF13
:100FC000CD170008F517000822180008F7170008C9
:100FD0003318000828020020861800083C18000872
:100FE0002402002045180008200200204E180008A6
:100FF000891800083C110008C91400084B110008AA
:10100000581100086B18000808B5FFF7B5FB000081
:10101000830730B546D08418844604E003F8011BEA
:101020009D0704D09C46A4456346F7D130BD013AE4
:101030000244A2EB0C02032A29D9CCB204EB04240B
:101040000F2A04EB04442FD9A2F1100C2CF00F0C42
:1010500003F11005AC44C3E90044C3E90244103372
:101060006345F8D112F00C0F02F00F0E18D02EF0DD
:10107000030C9C44AEF104051A4642F8044B624549
:10108000FBD125F0030404330EF003022344002AAD
:10109000CCD0C9B21A4403F8011B9342FBD130BD36
:1010A0007246F4E70346C6E79646E0E70000000014
:1010B0000000000003FF0000C51800080000000049
:1010C0000000000002FF0000CF1800080000000030
:1010D0000000000002FF0000BA1800080000000035
:1010E0000000000003FF0000B51800080000000029
:1010F0000000000002FF0000B0180008000000001F
:101100000000000000FF0000A71800080000000019
:101110000000000002FF0000A0180008000000000E
:101120000000000002FF0000991800085B504153C6
:10113000535D20005B4641494C5D200076616C7533
:1011400065206D69736D6174636800202065787037
:1011500065637465643A200020676F743A20000A62
:101160002D2D2D204E6577204150493A2050726F29
:10117000636573736F7220436F6E63657074205480
:1011800065737473202D2D2D0D0A0050726F6365E9
:1011900073736F724C696B65206475636B2074792F
:1011A00070696E6720776F726B73000A2D2D2D208A
:1011B0004E6577204150493A20417564696F436F0D
:1011C0006E74657874205465737473202D2D2D0D05
:1011D0000A0073616D706C655F7261746500636FA6
:1011E0006E746578742068617320627566666572D6
:1011F0005F73697A6500636F6E74657874206861E7
:1012000073203220696E70757473002020554D492B
:101210002D4F5320436F6D70726568656E736976EC
:10122000652052656E6F64652054657374730D0A92
:10123000000A2D2D2D205461736B2043726561745B
:10124000696F6E205465737473202D2D2D0D0A0067
:101250006372656174655F7461736B207265747528
:10126000726E732076616C696420696400676574CE
:101270005F7461736B5F6E616D65206E6F74206E5D
:10128000756C6C007461736B207072696F72697435
:101290007920636F72726563740064656C65746550
:1012A0005F7461736B207375636365656473006459
:1012B000656C65746520696E76616C696420746123
:1012C000736B206661696C73000A2D2D2D204E6FA3
:1012D00074696669636174696F6E205465737473B1
:1012E000202D2D2D0D0A006E6F746966696361747F
:1012F000696F6E2064656C697665726564006E6FF7
:1013000074696669636174696F6E20636C6561728C
:1013100065642061667465722077616974000A2DC6
:101320002D2D2054696D6572205465737473202DC2
:101330002D2D0D0A0074696D6572207363686564F4
:10134000756C65640074696D6572206E6F742066DB
:1013500069726564206561726C790074696D65728B
:1013600020666972656420617420646561646C69DB
:101370006E65000A2D2D2D205370736351756575B0
:1013800065205465737473202D2D2D0D0A00717521
:101390006575652073746172747320656D707479FE
:1013A0000071756575652068617320737061636590
:1013B00020696E697469616C6C790070757368205E
:1013C00031007075736820320070757368203300C7
:1013D00070757368206661696C73207768656E202C
:1013E00066756C6C00706F70203100706F70203209
:1013F00000706F70203300706F7020656D707479AD
:10140000206661696C73000A2D2D2D20526573755D
:101410006C742F45787065637465642054657374CB
:1014200073202D2D2D0D0A004F6B206861732076DF
:10143000616C7565004F6B2076616C756520636F1C
:1014400072726563740045727220686173206E6FFA
:101450002076616C75650045727220636F6465204B
:10146000636F7272656374000A2D2D2D20507269AE
:101470006F72697479205363686564756C696E670F
:10148000205465737473202D2D2D0D0A0072656133
:101490006C74696D65207461736B2073656C656332
:1014A000746564206669727374000A2D2D2D2053B3
:1014B0007461636B204D6F6E69746F722054657335
:1014C0007473202D2D2D0D0A00737461636B2069D8
:1014D0006E697469616C6C79203025207573656460
:1014E00000737461636B2075736167652064657454
:1014F0006563746564000A2D2D2D20666F725F652B
:101500006163685F7461736B205465737473202D1D
:101510002D2D0D0A00666F725F656163685F7461EF
:10152000736B206974657261746573207461736B89
:1015300073000A2D2D2D20566563746F722054613F
:10154000626C65205465737473202D2D2D0D0A0077
:101550007461626C652062617365206E6F6E2D7AB6
:1015600065726F007461626C652070726F70657275
:101570006C7920616C69676E65640068616E646C8B
:101580006572206E6F74206E756C6C0068616E649D
:101590006C65722073657420636F72726563746C1E
:1015A00079004952512068616E646C6572207365E0
:1015B00074000A2D2D2D204E6577204150493A2088
:1015C0005479706573205465737473202D2D2D0D1F
:1015D0000A0073616D706C655F7420776F726B7356
:1015E0000064656661756C742073616D706C652054
:1015F000726174650064656661756C7420626C6FFD
:10160000636B2073697A650069642074797065730F
:1016100020776F726B000A2D2D2D204E65772041AB
:1016200050493A2054696D65205465737473202DB8
:101630002D2D0D0A006D735F746F5F73616D706C9B
:10164000657328312E302C20343830303029007327
:10165000616D706C65735F746F5F6D7328343830C3
:1016600030302C203438303030290062706D5F7497
:101670006F5F73616D706C65735F7065725F6265DB
:101680006174283132302C20343830303029000A4F
:101690002D2D2D204E6577204150493A2045766505
:1016A0006E74205465737473202D2D2D0D0A006502
:1016B00076656E742074797065206973204D696455
:1016C00069006E6F74652069732036300076656C32
:1016D0006F63697479206973203130300069735FFA
:1016E0006E6F74655F6F6E282920776F726B730061
:1016F00070757368207375636365656473007175D5
:10170000657565206E6F7420656D707479206166F3
:10171000746572207075736800706F7020726574E4
:1017200075726E73207472756500706F7070656489
:10173000206E6F746520636F7272656374007175DB
:1017400065756520656D70747920616674657220B9
:10175000706F70000A2D2D2D204E65772041504965
:101760003A20547269706C654275666665722054E1
:1017700065737473202D2D2D0D0A007772697465C1
:101780005F62756666657220616E64207075626C5A
:1017900069736820776F726B006861735F6E65773D
:1017A0005F646174612072657475726E7320747207
:1017B0007565007265616465722073656573207775
:1017C00072697474656E2076616C7565006861730A
:1017D0005F6E65775F646174612072657475726EA7
:1017E000732066616C736520616674657220757024
:1017F00064617465000D0A3D3D3D3D3D3D3D3D3D0F
:101800003D3D3D3D3D3D3D3D3D3D3D3D3D3D3D3D08
:101810003D3D3D3D3D3D3D3D3D3D3D3D3D3D3D0D28
:101820000A002020546573742053756D6D617279C0
:101830000D0A00546F74616C3A202000506173737C
:1018400065643A20004661696C65643A20000D0ABF
:101850002A2A2A20414C4C205445535453205041AD
:1018600053534544202A2A2A0D0A000D0A2A2A2AFF
:1018700020534F4D45205445535453204641494C25
:101880004544202A2A2A0D0A00544553545F434FE9
:101890004D504C4554450D0A007461736B5F6200F6
:1018A0007461736B5F61007265616C74696D650072
:1018B000757365720069646C65006E6F7469665F4C
:1018C00074657374003C756E6E616D65643E007482
:0C18D0006573745F7461736B00000000AE
:1018DC0000000000000000000000000000000000FC
:1018EC000000000003FF0000C51800080000000005
:1018FC00000000000000000003FF0000C5180008F5
:10190C0000000000000000000000000003FF0000C9
:10191C00C5180008000000000000000000000000D6
:10192C0003FF0000C51800080000000000000000C4
:10193C000000000003FF0000C518000800000000B4
:10194C00000000000000000003FF0000C5180008A4
:10195C0000000000000000000000000003FF000079
:10196C00C518000800000000000000000000000086
:10197C0003FF0000C5180008000000000000000074
:10198C00000000000000000000000000000000004B
:10199C00000000000000000000000000000000003B
:1019AC00000000000000000000000000000000002B
:1019BC00000000000000000000000000000000001B
:1019CC00000000000000000000000000000000000B
:1019DC0000000000000000000000000000000000FB
:1019EC0000000000000000000000000000000000EB
:1019FC0000000000000000000000000000000000DB
:101A0C0000000000000000000000000000000000CA
:101A1C0000000000000000000000000000000000BA
:101A2C0000000000000000000000000000000000AA
:101A3C00000000000000000000000000000000009A
:101A4C00000000000000000000000000000000008A
:101A5C00000000000000000000000000000000007A
:101A6C00000000000000000000000000000000006A
:101A7C00000000000000000000000000000000005A
:101A8C00000000000000000000000000000000004A
:101A9C00000000000000000000000000000000003A
:101AAC00000000000000000000000000000000002A
:101ABC00000000000000000000000000000000001A
:101ACC00000000000000000000000000000000000A
:04000005080000C02F
:00000001FF
