:020000040800F2
:1000000030A20020A90D00088D0100088F01000812
:10001000910100089301000895010008000000000C
:100020000000000000000000000000009701000830
:10003000650200080000000067020008990100083E
:10004000B1010008B1010008B1010008B1010008C8
:10005000B1010008B1010008B1010008B1010008B8
:10006000B1010008B1010008B1010008B1010008A8
:10007000B1010008B1010008B1010008B101000898
:10008000B1010008B1010008B1010008B101000888
:10009000B1010008B1010008B1010008B101000878
:1000A000B1010008B1010008B1010008B101000868
:1000B000B1010008B1010008B1010008B101000858
:1000C0004FF04023D3F800241206FBD5C3F80404F4
:1000D000704708B5411E11F8010F00B908BDFFF7C0
:1000E000EFFFF8E70A4A1368013310B51360094AB5
:1000F00013680446013308481360FFF7EAFF2046FF
:10010000FFF7E7FFBDE810400448FFF7E2BF00BF7C
:100110002802002024020020CC0E0008371300081B
:100120000D4A38B51368013313600C4A136805464D
:1001300001330B4813600C46FFF7CBFF2846FFF74F
:10014000C8FF0848FFF7C5FF2046FFF7C2FFBDE81C
:1001500038400548FFF7BDBF2802002020020020DC
:10016000D40E0008FC12000837130008024A136876
:1001700001331360704700BF04020020024A136875
:1001800001331360704700BF00020020FEE7FEE766
:10019000FEE7FEE7FEE77047044AD2E9003113F5B7
:1001A0007A7341F10001C2E9003170471802002062
:1001B000FEE700BEFDE730B5011E85B01ADA2D203E
:1001C000FFF77EFF494201AB00241D460A20B1FB28
:1001D000F0F200FB1211303103F8011B013411461B
:1001E000002AF4D1013C285DFFF76AFF002CF9D109
:1001F00005B030BDE7D1302005B0BDE83040FFF795
:100200005FBF000038B504468C420D46104603D14E
:10021000BDE83840FFF766BF0949FFF781FF09488D
:10022000FFF757FF2846FFF7C6FF0748FFF751FFC4
:100230002046FFF7C0FFBDE838400448FFF749BF3C
:10024000DC0E0008EB0E0008F80E0008371300085B
:10025000034608460BB1FFF745BF0149FFF760BFF2
:10026000391300087047704770B572B6002300F16B
:100270001C04142505FB03F2A65C5EB985189CB22C
:100280000FC905F10C0686E80F0001232B7762B633
:10029000204670BD0133082BECD14FF6FF74F6E712
:1002A0002DE9F04F014687B072B6D0E900B001F5F4
:1002B000A47501901827002007FB00F42E5D002E86
:1002C0005FD001300828F7D1002091F8313173B1A7
:1002D00091F83021454C182303FB0212D2E94E322B
:1002E000019913EB0B0341EB0202C4E9003262B641
:1002F00007B0BDE8F08F4FF0000991F830E1CDF87C
:100300000C90A5B1182404FB0EF401EB040804942E
:10031000D8F83841D8F83C710294A24273EB070434
:10032000029C1AD2A41A67EB0307C8E94E471824A7
:1003300004FB0010C0E94E23059B06F803E08AF891
:100340000150B9F1000F16D0039B63431133F2182B
:1003500006F803C00123537045E0141B63EB070349
:10036000049FCDF80CE011372246F419A94616F87F
:1003700007E06578C5E7012381F830C181F83131A4
:1003800031E00C44012584F84851109DC4F84051D7
:10039000119DC4F84451019C1BEB020544EB03047E
:1003A000AB45019D75EB040401D332463346182456
:1003B000444304F1110501F59C76059506EB050A09
:1003C00091F831515FFA80FC002D94D1012081F821
:1003D000310181F830C10819C0E94E239AF8013083
:1003E0000BB18AF8015001206FE700BF1002002016
:1003F000D1F880300A6CBFF35B8F9A4202D10023A0
:100400000371704751F82320013303F00303BFF356
:100410005B8FC1F8803001230260F1E710B5026CF8
:10042000D0F88040BFF35B8F531C03F00303A3425B
:1004300007D0096840F82210BFF35B8F03640120E6
:1004400010BD0020FCE72DE9F743058900220135A6
:1004500005F00705944696461346164603274FF0C7
:100460001408AC1804F0070408FB040999F81C10E0
:10047000013901290FD899F815100139C9B2FD29A0
:1004800009D999F814100129A4B213D883B1B9423B
:1004900001D226460F460132082AE2D1BCF1000FF4
:1004A0001CD05BB3012F29D8ADF80460012317E0FD
:1004B0000123EEE7022906D1BCF1000FEBD1A646DD
:1004C0004FF0010CE7E7002BE5D1BCF1000FE2D1C2
:1004D0000329E0D126460F460123DCE7002BE3D1B8
:1004E0008DF80630BDF80430002063F30F00BDF82E
:1004F000063063F31F4003B0BDE8F083A0F808E0C6
:100500007646D1E789B2072907D8142303FB0100F7
:10051000007F003818BF012070470020704700009E
:10052000F7B505468EB272B63146FFF7EBFF0746C8
:1005300020B9002762B6384603B0F0BDD5F8F801FF
:10054000019010F47F0F83B201D09E42F1D0094B8D
:100550000FCB142404FB06544FF0000C84F81CC08D
:100560000C3484E80F0005EB8605C5F8ECC0C5F82F
:100570000CC1DFE74C0E000813B50446FFF763FF1C
:1005800010F47F0F019010D094F8FA312BB1B4F829
:10059000F821BDF804309A4205D04FF0E0234FF027
:1005A0008052C3F8042D02B010BD034B1B78002B02
:1005B000F9D030BFF7E700BF080200202DE9F0476F
:1005C0000446D0E90010891843EB0000C4E900108C
:1005D00094F830E194F831714FF0180C4FF00008A6
:1005E0004FF00009002F43D052EA030140D00CFB2A
:1005F0000EF6A019D0E94E158A4273EB050A07D210
:10060000891A65EB03050022C0E94E151346E9E798
:10061000511A06F249160A4604EB0601C0E94E8952
:1006200014F806E04F7863EB0503DBE794F830310C
:100630007343E218D2E94E10014314D1D2E95010AD
:1006400003F59C73B2F84921A4F83021E218E55073
:1006500055609560D5601574957401B1884794F81C
:100660003131002BE2D12046FFF786FFBDE8F0874D
:1006700018260025F3E789B2072930B519D800EB11
:10068000810450F82130BFF35B8F03EA020080B190
:10069000BFF35B8F23EA020554E8001F994203D1A0
:1006A00044E8005CBCF1000FBFF35B8F02D00B4647
:1006B000EBE7002030BD000030B5074C8A0800236E
:1006C000934202D1A1EB830030BD50F82350A542E4
:1006D000F8D10133F4E700BFEFBEADDE2DE9F04302
:1006E000C44AC548D2F84038C44E43F40033ADF58F
:1006F0004B7DC2F840384FF0402340F28362C3F88C
:10070000082442F20802C3F80C244FF0E023BC4A4C
:100710005A6100229A6107221A61BA4B01221A70AB
:10072000FFF7D7FCB848FFF7D4FCB848FFF7D1FC77
:10073000B548FFF7CEFCB648FFF7CBFCB54B0FCB67
:100740000CAC84E80F0021463046FFF78DFD0746CC
:100750001FFA80F84FF6FF70B8EB000018BF0120B9
:10076000AD49FFF775FD0DF22F253946304625F0CE
:10077000FF05FFF7C7FE18B1142303FB0863986950
:10078000A649003818BF0120FFF762FD9B48394693
:10079000FFF7B8FE002800F09F82142303FB0868CF
:1007A00098F814009E49A0F1020CDCF1000040EB27
:1007B0000C00FFF74DFD39469048FFF7B1FE99490F
:1007C000FFF746FD39468D48FFF7AAFE80F001008D
:1007D0009549C0B2FFF73CFD9448FFF77AFC944B73
:1007E0000FCB84E80F0085482146FFF73DFD1FFA37
:1007F00080F8B8F1070F07460DD8BFF35B8F08F1FB
:100800003B0306EB830353E8001F41F0010143E87B
:100810000012002AF7D179483946FFF773FE08B372
:10082000142303FB08631A7F032A1BD172B61A7FB5
:10083000032A16D1B8F1070F13D808F13B0256F876
:100840002210BFF35B8F06EB8806D6F80C2111420D
:1008500007D001221A7769480023C6F80C31FFF748
:100860008BFE62B6012239467248FFF704FF461E2E
:10087000704270417049FFF7EBFC012239466D4828
:10088000FFF7F9FEB0FA80F06C494009FFF7E0FC91
:1008900039465A486A4FFFF743FE6A48FFF719FC8A
:1008A0000026694B2360666094E803004FF47A7277
:1008B0008DE8030000235148FFF7F2FC6349FFF77E
:1008C000C7FC00234D484FF4FA72FFF777FE31461C
:1008D00038685F4AFFF796FC002348484FF41672C9
:1008E000FFF76CFE5B4A38680121FFF78BFC5A4822
:1008F000FFF7EFFBC0223146284600F059FA29469F
:100900002046FFF775FD2079544980F00100FFF77C
:100910009FFC2B6CD5F88000013303F00303181AF9
:1009200018BF01204E494F4EFFF792FC0123236070
:1009300021462846FFF772FD4B49FFF789FC022349
:10094000236021462846FFF769FD4849FFF780FCF0
:100950000323236021462846FFF760FD4449FFF743
:1009600077FC0423236021462846FFF757FD80F0DB
:1009700001004049C0B2FFF76BFC29462046FFF753
:1009800037FD236820793C49012B14BF002000F07B
:100990000100FFF75DFC29462046FFF729FD23688B
:1009A00020793649022B14BF002000F00100FFF728
:1009B0004FFC29462046FFF71BFD2368207930496C
:1009C000032B14BF002000F00100FFF741FC294673
:1009D0002046FFF70DFD20792A4980F00100FFF73E
:1009E00037FC2948FFF775FB2848FFF77BFB2A21D6
:1009F00008464DE000300240371300080000002098
:100A00003F19010008020020A8120008FF0E00088C
:100A1000250F00085C0E0008440F0008610F000855
:100A2000780F00088E0F0008A30F0008BD0F000804
:100A30006C0E0008EC000020DB0F0008F20F00082D
:100A400004020020121000086D010008291000089F
:100A5000391000084F1000086710000882100008C5
:100A6000951000087C0E0008AF100008B6100008B2
:100A7000BD100008C4100008D9100008DF100008DD
:100A8000E5100008EB100008FB1000081C1100081E
:100A90009F4AFFF7B7FB9F48FFF724FB9E48FFF7ED
:100AA00021FB9E48FFF715FB96E80F000DF1100C97
:100AB0008CE80F0006F110030FCB08AF203687E853
:100AC0000F0096E80F0084E80F0061469448FFF796
:100AD000CBFB394681469248FFF7C6FB214680464C
:100AE0008F48FFF7C1FB06468D48FFF7ACFC034675
:100AF00013F47F0F0390C0F3074005D0BDF80C003E
:100B0000B3B2C11A484248418649FFF7A1FB4946A2
:100B10008348FFF705FD41468148FFF701FD314657
:100B20007F48FFF7FDFC8048FFF7D3FA7F49224654
:100B300000230133402B42F8041BFAD14FF480719B
:100B40002046FFF7B9FD6423584310F47F4FC0F3EC
:100B5000072640F0C3807648FFF7C4FA754B764EFF
:100B6000C4E93C33C4E93E334FF480712046FFF7BB
:100B7000A3FD6423584310F47F4018BF01206F4940
:100B8000FFF766FB6E48FFF7A4FA96E80F001036F1
:100B900087E80F0096E80F0084E80F0039466048A8
:100BA000FFF762FB214606465D48FFF75DFB002329
:100BB0005B4A04461846117F01B101300133082B0E
:100BC00002F11402F7D10128D4BF002001205D49B1
:100BD000FFF73EFB31465248FFF7A2FC2146504842
:100BE000FFF79EFC5848FFF774FAF822002105F140
:100BF000080000F0DDF84FF00063544819682A46F9
:100C00004123013B7ED14FF0E026514C29606C60BE
:100C1000C6F8085DBFF34F8FBFF36F8F4D48FFF7E6
:100C200061FA4D48FFF75EFAE86B4C49003818BF8F
:100C30000120FFF70DFBAC63BFF34F8FA86B484952
:100C4000031B58425841FFF703FBC5F8D840BFF3D8
:100C50004F8FD5F8D8004349021B50425041FFF74F
:100C6000F7FA4FF00063C6F8083D3F48FFF731FA46
:100C70003E48FFF72EFA3E48FFF72BFA3D48FFF7B4
:100C800028FA3D4B1868FFF796FA3C48FFF721FA1F
:100C90003B48FFF71EFA3B4B1868FFF78CFA3748C2
:100CA000FFF717FA3848FFF714FA384B1C6820464C
:100CB000FFF781FA3148FFF70CFA34BB3448FFF7ED
:100CC00008FA3448FFF705FA003C4FF0604318BFBC
:100CD00001241C6030BFFDE7032063E52E49144862
:100CE000FFF71EFA2D48FFF7F4F90020FFF763FA2B
:100CF0002B48FFF7EEF93046FFF75DFA1F48FFF784
:100D0000E8F92BE742F8040B7BE72648D7E700BF5A
:100D1000291100083A1100084B1100085C11000865
:100D200000000020811100089E110008EFBEADDE1A
:100D3000BD11000878563412AC0E0008D511000819
:100D4000EA1100080912000826120008B301000881
:100D50007D01000844120008581200086F120008B4
:100D60008012000896120008A6120008D31200088C
:100D7000A8120008E4120008280200203713000817
:100D8000ED12000824020020F612000820020020C4
:100D9000FF1200083A130008DC0E0008EB0E0008F2
:100DA000F80E00081C13000808B5FFF797FC0000B8
:100DB000830730B546D08418844604E003F8011B4D
:100DC0009D0704D09C46A4456346F7D130BD013A47
:100DD0000244A2EB0C02032A29D9CCB204EB04246E
:100DE0000F2A04EB04442FD9A2F1100C2CF00F0CA5
:100DF00003F11005AC44C3E90044C3E902441033D5
:100E00006345F8D112F00C0F02F00F0E18D02EF03F
:100E1000030C9C44AEF104051A4642F8044B6245AB
:100E2000FBD125F0030404330EF003022344002A0F
:100E3000CCD0C9B21A4403F8011B9342FBD130BD98
:100E40007246F4E70346C6E79646E0E70000000076
:100E50000000000003FF00007613000800000000FF
:100E60000000000002FF00008013000800000000E6
:100E70000000000002FF00006B13000800000000EB
:100E80000000000003FF00006613000800000000DF
:100E90000000000002FF00006113000800000000D5
:100EA0000000000000FF00005813000800000000D0
:100EB0000000000002FF00005113000800000000C5
:100EC0000000000002FF00004A1300085B5041537D
:100ED000535D20005B4641494C5D200076616C7596
:100EE00065206D69736D617463680020206578709A
:100EF00065637465643A200020676F743A200020AF
:100F000020554D492D4F5320436F6D7072656865B4
:100F10006E736976652052656E6F646520546573E3
:100F200074730D0A000A2D2D2D205461736B20431C
:100F300072656174696F6E205465737473202D2D12
:100F40002D0D0A006372656174655F7461736B20B7
:100F500072657475726E732076616C696420696461
:100F6000006765745F7461736B5F6E616D65206EA1
:100F70006F74206E756C6C007461736B2070726995
:100F80006F7269747920636F72726563740064654F
:100F90006C6574655F7461736B20737563636565FD
:100FA00064730064656C65746520696E76616C6954
:100FB00064207461736B206661696C73000A2D2D67
:100FC0002D204E6F74696669636174696F6E205479
:100FD00065737473202D2D2D0D0A006E6F74696674
:100FE00069636174696F6E2064656C6976657265AA
:100FF00064006E6F74696669636174696F6E206303
:101000006C656172656420616674657220776169E0
:1010100074000A2D2D2D2054696D6572205465735E
:101020007473202D2D2D0D0A0074696D6572207367
:1010300063686564756C65640074696D6572206EC3
:101040006F74206669726564206561726C790074E2
:10105000696D6572206669726564206174206465DB
:1010600061646C696E65000A2D2D2D2053707363C9
:101070005175657565205465737473202D2D2D0D84
:101080000A007175657565207374617274732065EB
:101090006D70747900717565756520686173207372
:1010A0007061636520696E697469616C6C79007048
:1010B0007573682031007075736820320070757325
:1010C0006820330070757368206661696C732077DF
:1010D00068656E2066756C6C00706F7020310070F2
:1010E0006F70203200706F70203300706F70206559
:1010F0006D707479206661696C73000A2D2D2D2046
:10110000526573756C742F457870656374656420DF
:101110005465737473202D2D2D0D0A004F6B2068BC
:1011200061732076616C7565004F6B2076616C751C
:101130006520636F72726563740045727220686126
:1011400073206E6F2076616C756500457272206346
:101150006F646520636F7272656374000A2D2D2DB4
:10116000205072696F726974792053636865647581
:101170006C696E67205465737473202D2D2D0D0AD4
:10118000007265616C74696D65207461736B2073A6
:10119000656C6563746564206669727374000A2DFA
:1011A0002D2D20537461636B204D6F6E69746F72C7
:1011B000205465737473202D2D2D0D0A00737461F6
:1011C000636B20696E697469616C6C7920302520CD
:1011D0007573656400737461636B20757361676513
:1011E000206465746563746564000A2D2D2D206686
:1011F0006F725F656163685F7461736B20546573C0
:101200007473202D2D2D0D0A00666F725F6561636A
:10121000685F7461736B20697465726174657320B3
:101220007461736B73000A2D2D2D20566563746FE6
:1012300072205461626C65205465737473202D2D87
:101240002D0D0A007461626C652062617365206E09
:101250006F6E2D7A65726F007461626C65207072BA
:101260006F7065726C7920616C69676E6564006887
:10127000616E646C6572206E6F74206E756C6C00AC
:1012800068616E646C65722073657420636F72723E
:101290006563746C79004952512068616E646C65B5
:1012A0007220736574000D0A3D3D3D3D3D3D3D3D61
:1012B0003D3D3D3D3D3D3D3D3D3D3D3D3D3D3D3D5E
:1012C0003D3D3D3D3D3D3D3D3D3D3D3D3D3D3D3D4E
:1012D0000D0A002020546573742053756D6D617282
:1012E000790D0A00546F74616C3A202000506173CC
:1012F0007365643A20004661696C65643A20000DAC
:101300000A2A2A2A20414C4C205445535453205039
:101310004153534544202A2A2A0D0A000D0A2A2A3D
:101320002A20534F4D45205445535453204641499C
:101330004C4544202A2A2A0D0A00544553545F4341
:101340004F4D504C4554450D0A007461736B5F62FC
:10135000007461736B5F61007265616C74696D65C7
:1013600000757365720069646C65006E6F74696600
:101370005F74657374003C756E6E616D65643E00EC
:0C138000746573745F7461736B0000008F
:10138C000000000000000000000000000000000051
:10139C000000000003FF00007613000800000000AE
:1013AC00000000000000000003FF0000761300089E
:1013BC0000000000000000000000000003FF00001F
:1013CC007613000800000000000000000000000080
:1013DC0003FF00007613000800000000000000006E
:1013EC000000000003FF000076130008000000005E
:1013FC00000000000000000003FF0000761300084E
:10140C0000000000000000000000000003FF0000CE
:10141C00761300080000000000000000000000002F
:10142C0003FF00007613000800000000000000001D
:10143C0000000000000000000000000000000000A0
:10144C000000000000000000000000000000000090
:10145C000000000000000000000000000000000080
:10146C000000000000000000000000000000000070
:10147C000000000000000000000000000000000060
:10148C000000000000000000000000000000000050
:10149C000000000000000000000000000000000040
:1014AC000000000000000000000000000000000030
:1014BC000000000000000000000000000000000020
:1014CC000000000000000000000000000000000010
:1014DC000000000000000000000000000000000000
:1014EC0000000000000000000000000000000000F0
:1014FC0000000000000000000000000000000000E0
:10150C0000000000000000000000000000000000CF
:10151C0000000000000000000000000000000000BF
:10152C0000000000000000000000000000000000AF
:10153C00000000000000000000000000000000009F
:10154C00000000000000000000000000000000008F
:10155C00000000000000000000000000000000007F
:10156C00000000000000000000000000000000006F
:10157C00000000000000000000000000000000005F
:04000005080000C02F
:00000001FF
